:1000000048130020AD2800000B3D0000913B00008C
:10001000FFFFFFFFFFFFFFFFFFFFFFFFFFFFFFFFF0
:10002000FFFFFFFFFFFFFFFFFFFFFFFFDD3E0000C1
:10003000FFFFFFFFFFFFFFFF593E0000FD400000F4
:10004000BF280000BF280000BF280000D1390000F1
:10005000D5390000BF280000F1390000FFFFFFFF85
:10006000592F0000FFFFFFFFBF280000FFFFFFFF29
:10007000BF280000BF280000BF280000BF280000E4
:10008000BF280000F1300000E1310000BF2800006F
:10009000BF280000BF280000BF2800000542000064
:1000A000FFFFFFFFF5410000BF2800000448804724
:1000B00004480047FEE7FEE7FEE7FEE7FEE7FEE74F
:1000C00071410000C92800000348854600F020FB6C
:1000D00000480047B15600004813002030B50B46D9
:1000E000014600202022012409E00D46D5409D4212
:1000F00005D31D469540491B254695404019154698
:10010000521E002DF1DC30BDD2B201E00270401C65
:10011000491EFBD270470022F6E710B513460A4687
:1001200004461946FFF7F0FF204610BD024670B5A1
:100130004A40D30FDB0740002DD04A002AD0010EE1
:10014000140E000212020919400A520A8418E5012D
:1001500004465443000A120A2E045043A4194219BB
:10016000200CC543AA18120C0125AD03521C5219CC
:1001700012047F39240400D0521C104301D44000E3
:10018000491EC2B20C06C0092018401C4008802A33
:1001900002D003E0002070BD40084000002900DAD2
:1001A0000020184370BD70B502464A40D50F40008C
:1001B0004A00ED0740085208002814D0002A12D047
:1001C000C40DD30D41020120C0055202490A520A52
:1001D000E41A091812187D34914201D3641C00E01E
:1001E0004900002C01DA002070BD0023914201D3A8
:1001F000891A0343400849000028F7D100290AD092
:10020000914202D10121C90705E0914201D20121A9
:1002100001E00121C943E005C018401900F0D8F9F8
:1002200070BD420005D04200120E52428A4201DBEC
:1002300000207047C905081870470000F0B5074650
:100240000846584087B0C00F049048000E46590039
:1002500040084908BC1A884105D2384631461E4636
:1002600017460B4602465800400810434CD0300D4C
:10027000039040055900400D490D0590401A029029
:10028000402872DA18030121000B09050843019088
:1002900004980092002805D001995242002088411C
:1002A00000920190029840210A1A0199009800F0EA
:1002B0005BF905460C466B4607CB00F076F9C01992
:1002C0007141039A0E0D0023D71756401A467A4003
:1002D000164344D0049A002A2DD0029A012A039A88
:1002E00015DC1205C01A914101263605001C71412A
:1002F000D20F059ED2070093019202962A4623460A
:1003000000F0B4F907B0F0BD38463146FAE71605FB
:10031000224A0F46B218C01AB74101210905001C34
:100320004F4100187F41114618187941E20F1043E0
:100330006D19644113E0E2076D0815436408C207B4
:100340001443039A01261205C01A91413605001C78
:100350007141CE07400830434908C01851412A4630
:10036000234600F076F9CDE7FFE70498012240002C
:10037000C117121A00238B4104983146C417381A4A
:10038000A141EEE730B40124E407634030BC55E7F7
:1003900030B40124E407614030BC4FE70000E0FFC7
:1003A000F0B51FB488B00B9909980024484009990A
:1003B000C00F490049080991C0070B9900904900F6
:1003C00049080B9109990898A64608431CD00B9937
:1003D0000A98084318D0099801244000420D4800AB
:1003E000410D099824050003000B204309900B9848
:1003F0000003000B20430B9050181C4940180022AA
:1004000001901446104605E0002001460DB0F0BDF5
:10041000032801DA034600E003239C46C11A0AAE12
:100420000AE05F0008ADED5B4F00F75B7D430027FE
:10043000AA187C41491C5B1E6145F2DD410004ABFA
:100440005A522104120C0A43240C401C0828DFDBFA
:10045000019802900099704601910090059B049AC2
:100460000799069800F002F9D0E700000DFCFFFFA5
:1004700070B54B005B0803430BD04B005C0D0026AE
:1004800033466542B341D417AD1AA34102DB0020C5
:10049000014670BD12053018514170BDC217C10F21
:1004A000504010B54018CA079623002100F098F874
:1004B00010BD10B500229623114600F091F810BD32
:1004C0000EB505490291002100910A460B460191A3
:1004D00000F0CCF803B000BD33040000410040023E
:1004E0000122400AD205090E80187F2901DA002076
:1004F0007047962903DC9622511AC84070479639F6
:10050000884070474A0009030123090B1B05194362
:10051000094B10B5520D9A4201DA002010BD064B6E
:1005200034339A4203DC9A1A00F02EF810BD0349C6
:100530005118884010BD0000FF030000CDFBFFFFF5
:10054000C20FD207400040080BD0C10D0723DB01CA
:10055000C91840020905400A1143C2084007114367
:10056000704700200146704710B5202A04DB014681
:10057000203A9140002010BD914020239C1A034650
:10058000E3401943904010BD10B5202A04DB084613
:10059000203AD040002110BD0B46D340D04020244B
:1005A000A21A91400843194610BD10B5202A06DB57
:1005B000CB170846203A1041C1170B4306E00B4603
:1005C0001341D0402024A21A91400843194610BD7F
:1005D000002904DA401C490001D14008400070475E
:1005E00070B40024050C05D11024000402D10029A8
:1005F00021D01124050E01D100020834050F01D1CC
:100600000001241D850F01D18000A41C002801DBFE
:100610004000641C002908D020252E1B0D46F54003
:10062000A14000D001212943084301061B1B000AF9
:10063000DB1D02D5002070BC7047DB051818801840
:100640000029F8DA401C4900F5D170BC4008400090
:10065000704710B5002B08DA0024401C6141921845
:100660005B411A4301D14008400010BDF0B51FB4F2
:1006700082B005460C0003D0084601F0C1FB02E041
:1006800001F0BEFB20300246009021462846FFF7CD
:100690006BFF049B059A04460F4618431143084319
:1006A00014D0184610431BD0009840210A1A18464F
:1006B0000599FFF769FF05460E46009A05990498CB
:1006C000FFF752FF084305D0012004E020463946D9
:1006D00007B0F0BD0020C11705430E432C4337433C
:1006E00000990E986305401A7905E40A00220C432C
:1006F000FD0A0A3002D500200146E9E7010510197C
:1007000069410C9C0D9D00196941FFF7A2FFDFE7CD
:10071000064C0125064E05E0E36807CC2B430C3C54
:1007200098471034B442F7D3FFF7D2FCC0640000FE
:10073000E06400008030C1607047802200290168B9
:1007400001D0114300E09143016070478030406860
:10075000084000D0012070477047000010B5124CCF
:1007600004212046FFF7F2FF002817D0042120467D
:10077000FFF7E0FF206B0D4A00051178000D4900DE
:10078000891848801078401CC1B211700C2906D31A
:10079000012050700020107001F088FE10BD012172
:1007A000204600F024F810BD000001401A0200208D
:1007B000930810B59B00181843689207D20E1F24A7
:1007C0009440A34391400B43436010BD5B1E120253
:1007D0001B04FF3A013A13430B4301688022114086
:1007E0000B43036070470A0F026741677047002997
:1007F000416F02D00122114301E0490849004167DD
:10080000704700000121890310B58A028800012386
:1008100000F038FA062000F049FA022201210020F7
:1008200000F03AF80F4C01231A4600212046FFF74A
:10083000CDFF002202212046FFF7BAFF2103204608
:10084000FFF7D1FF04212046FFF774FF064AA115E8
:10085000116001212046FFF770FF00212046FFF7BD
:10086000C6FF10BD0000014080E200E010B500228C
:10087000072802D901220838C0B29300054A9A1805
:10088000136880000F248440A34381401943116002
:1008900010BD000000200240F0B596460A461349FC
:1008A000C000461800230025FF2098402C46104227
:1008B00016D00020012199408C461146C140674660
:1008C000394206D087000F21B9400D437146B94027
:1008D0000C43401C0828F0D33068A8432043306004
:1008E0000833361D082BDEDDF0BD0000202002405D
:1008F000F8B5344D2A78042033490124002A14D055
:100900002A78012A17D02E780202304B022E15D0F9
:100910002E78032E17D02E78042E17D02E78052E81
:1009200017D02E78062E21D047E0294A1278520798
:1009300043D588623DE04862022002E088629A6204
:100940000320287036E088629A62FAE75A6205202E
:10095000F7E79A62002028701D4801782143017052
:100960000178FB22114001700620EAE7194EB778A2
:100970007F1CB770B678142E19D3164F0026FE7060
:10098000BE7088629A623146134800F074F82E7087
:100990000F480178214301700178FB22114001705A
:1009A0000E480088322808D802F02AF805E088624C
:1009B0009A622C70287802F0ADFD074800F054F8D8
:1009C000F8BD00002900002000200B4000000B4073
:1009D0002A0000205F000020006007402C0000205B
:1009E00010B502F02FF8024800F03EF810BD0000EC
:1009F0000070074010B50020012252040123014677
:100A000000F040F9012012498004086012481149A1
:100A10000068FFF763FB4000FFF74BFDFFF790FD19
:100A20000E4A0F4BFFF7BCFCFFF76CFD0D4C014667
:100A3000204600F05FF80021204600F05DF801211B
:100A4000204600F04DF80121204600F014F810BDBA
:100A500000E100E010270000E800002033333333CA
:100A60003333D33F00700740416849084900416073
:100A7000BFF34F8F704704220029016801D0114352
:100A800000E091430160704710B50020012212047C
:100A90000123014600F0F6F801200D4940040860EA
:100AA0000D480C490068FFF719FB81000B4C4118F9
:100AB000204600F01FF80021204600F01DF801211B
:100AC000204600F00DF801212046FFF7D4FF10BDAD
:100AD00000E100E0A0860100E8000020006007407F
:100AE0000029016802D00122114301E049084900B0
:100AF00001607047C16070478160704700230360E8
:100B00004360C2608160704741680068814201D1E2
:100B1000012070470020704710B50446C168406846
:100B2000401CFFF7DBFA2068814201D1012010BD93
:100B3000002010BD10B5044663680020226893426F
:100B400009D0A068805C08702068E168401CFFF74D
:100B5000C5FA0120216010BDF8B515460E460746BE
:100B6000002406E0315D384600F007F8002802D086
:100B7000641CAC42F6D32046F8BDF8B58568002762
:100B80000E460446002D0FD0E1686068401CFFF758
:100B9000A5FA2068814207D060682E54401CE168A5
:100BA000FFF79CFA616001273846F8BD70B5164D15
:100BB0000446686B4607760F00F02AF81349206058
:100BC000330001F034F9081A0507071A1A14171A26
:100BD000606001E008466160296AC840A060A96AB7
:100BE0004903490F07290AD0C840E06070BD0120C1
:100BF000C003EDE77D200002EAE70020E8E70321DB
:100C0000FFF76CFAF1E700000080084000127A005C
:100C100010B50D4A1068D0690121C30F5068400A11
:100C200008400FD00948002B0CD19369DB0D1C073D
:100C3000240F00D1402492695202920F9140FFF795
:100C40004DFA604310BD00000080084000127A0099
:100C50001FB541090A4A89008A1800212E2800D1AF
:100C60000221C006C00E1268032383401A40C2400E
:100C700054186846FFF79AFF029804B0E04010BD90
:100C800038800840F0B5084F7C6AFD6A3E6B8443AB
:100C90008D439643002B02D004430D4316437C62E0
:100CA000FD623E63F0BD00000080084004498A6A8E
:100CB00007231B049A43000402438A627047000022
:100CC00000800840F0B587B000F086F9A8480078A9
:100CD000002827D0A74C0027A74D67702878C01E92
:100CE000C1B2284601F0C6FB0322002818D02846CE
:100CF00069782646203E0125042972D014DC01299A
:100D00001BD002290ED19C48807801282CD00328C2
:100D100040D0022857D0042855D0052862D073E06F
:100D20009648027007B0F0BD052971D01029F9D19D
:100D30009048401D01781022C6E08078012806D036
:100D40000228EFD18B48401D01780222BCE089487F
:100D5000401D01782943017087480179C278080253
:100D6000104340BAB085DDE783480097C178317001
:100D700003226946001D00F0BFFB0322804968463C
:100D800000F0BAFB7B480422401D0178114301703A
:100D9000277039E018216846FFF7BDF9764815221B
:100DA0006946001D00F0A8FB15227549684600F051
:100DB000A3FB704927700B310878420624D5BF2267
:100DC0001040087020E06C490428CA7832700A7913
:100DD00072774979B1773577E770277014D1E5706C
:100DE00012E077E0FF20307063482570C178F1771A
:100DF000017971774079B0775E483577401D017889
:100E0000042211430170E77001F0B0F98AE7FFE7AF
:100E100059485C4C807804282FD0022857D00728E6
:100E200080D1207A00289ED0534802226946C01DF6
:100E300000F062FB6A46107851781170507010888B
:100E4000618888428FD102F0E7FB4F482772077014
:100E5000B57302F027FD4D4B184600F05FFC4D4A7C
:100E60004B499163184600F059FCBFF34F8F4B4933
:100E70004948C860BFF34F8FFEE718216846FFF767
:100E80004AF927726780B57302F00CFD3A480822D0
:100E90006946C01C00F030FB6946088840BA2080D3
:100EA000488840BA608008792071887949790002C1
:100EB000084340BAE0806946C879C007C00F207275
:100EC0002C48401D01782022114301702AE7344844
:100ED000057027E78178334B012911D0032918D0F9
:100EE000042918D005291CD007291CD0082924D092
:100EF000FD2926D00A2939D00C2987D15D7211E746
:100F000029491D70087810430870284805706270E0
:100F100008E75D7006E79D70C178F1730079307461
:100F200000E7DD70FEE6C17871744179027908024C
:100F3000104340BA30861D71F4E6C078B0745D711C
:100F4000F0E6C178012903D00329BFD1DD71E9E6BC
:100F5000417902790902114349BA7186C1798279CE
:100F60000802104340BAB0869D71DBE61D72D9E6D7
:100F700068000020200000205E01002065000020A5
:100F8000EC000020E0010020C80000201027000035
:100F900015109119C01F00200400FA0500ED00E0B3
:100FA000C100002010020020740000207500002005
:100FB00070B515460C46C04300F04FFB054948602C
:100FC000E620086002E020780873641C6D1EFAD2E7
:100FD000886870BD00A0084010B506480079002858
:100FE00006D10548FF2201780132044800F008F8D4
:100FF00010BD000064000020E40000200C0300206D
:10100000F7B5044601274D4E4D4D82E02878012862
:1010100006D02878022822D0287803283DD059E02D
:10102000E888205C7E2815D029890020705428711A
:1010300028812F706F70E8880299401CFFF74EF8E6
:10104000E980E9880198814268D0E888205C7E28A0
:10105000F1D063E002202870E860AF7034E0E888E7
:10106000205C002811D0E888205C80280DD2E88818
:10107000215C28893218401C28811170E888205C86
:10108000801EE870032028701EE02989002070541B
:10109000287128812F70022015E02889E97888427C
:1010A000E88806D2215C28893218401C28811170FA
:1010B0000AE0205C7E281AD029890020705428710B
:1010C00028812F7005206870E8880299401CFFF77E
:1010D00005F8E98028897F281BD3298900207054CE
:1010E000287128812F7004216970E87016E0288922
:1010F00000243118401C28810C702F71AC702C8199
:101100002F70E8880299401CFEF7E8FFE980EC7038
:1011100004E0E9880198814200D077E7A8780028A8
:101120000BD0E868002808D1A8702989705428716C
:1011300028812F7006216970E870FEBD5E010020D5
:10114000640000200F480021018041800171C180AE
:101150000172E5224283FF229332C2827822028307
:10116000FF22027502460A23203253701370E122D7
:1011700012018283C28341620185C1620161C16043
:1011800070470000E001002010B51F200E49C0028A
:1011900000F01EFB00280AD030210C4800F07CFA39
:1011A000012803D03021094800F076FA10BDFFF77E
:1011B000C9FF3021054800F0C7FA0128F6D03021D8
:1011C000024800F0C1FA10BDFBFB0000E001002066
:1011D0007047000010B505484068C00701D001F015
:1011E00089FA002000F056F810BD0000404002408F
:1011F000F8B5204C2078C0072DD01F484068000467
:1012000029D51E4D68780026002828D02078400671
:101210001AD52078042738432070207840084000F1
:10122000207002F02BFB1648876216490015886271
:10123000AE7015480088002801D001F081FF1348E6
:101240000670007802F066F91149012008702078D4
:101250001021084320700F2000F01CF8F8BD2878FA
:10126000401C287028780F28F5D32E700120687054
:10127000F1E700002A000020404002405F0000200B
:1012800000200B4000000B402C0000202900002013
:101290005E0000200121814001484160816070476B
:1012A000404002400179027BC9071207114382685E
:1012B00000681143024A80008018016070470000F6
:1012C000004002400122054B82401868012902D0EB
:1012D0009043186070471043FBE700004040024015
:1012E00000B5034908600820C86000F019F800BD87
:1012F00000000840034BD86019605A601420186140
:10130000704700000000084000B5044A10605160BA
:101310000420D06000F004F800BD00000000084088
:1013200010B5124910484A6902231A434A6114222F
:101330000A6104E00A691207920F032A01D0401ED5
:10134000F8D28A698C699C438C61910301D5022093
:1013500010BD910701D5012010BD002801D000204B
:1013600010BD032010BD0000FFFF0F00000008406B
:10137000002A026801D00A4300E08A4302607047F5
:10138000002A426801D00A4300E08A434260704765
:10139000BFF34F8F03490248C860BFF34F8FFEE78A
:1013A0000400FA0500ED00E070B51546C0070FD047
:1013B0000520C00281420BD301260C46B60203E091
:1013C0002046FFF78DFFA419AC42F9D9012070BD6A
:1013D000002070BD10B5FFF715FA00F05FFD10BDDD
:1013E00070B5FFF76FFC3E4C00252078C10700293F
:1013F0000AD0400840002070FF203A492D30088074
:1014000001F06AFC384805702078810704D5FD2179
:101410000840207001F05CFF2078410704D5FB21D3
:101420000840207000F04AFD2078010704D5F7211C
:101430000840207002F0B2F902F0B0F82078C1063E
:1014400004D5EF210840207002F010F820788106C2
:1014500004D5DF210840207001F04CFE02F004F9B1
:1014600002F07EF901F0B8FF02F04EF901F074FECF
:1014700001F018F901F0D2FE01F09EFE01F04CFFE0
:1014800001F0FCFE02F00AF918480078002801D0AB
:1014900002F062FA164802781649002A02D10A7848
:1014A000002A01D005700D700D4C253C207A0028D3
:1014B0000DD002F03FFA01F001F8204620304178CB
:1014C000491C417000F0E0FE01F058F82572FFF76A
:1014D00045F901F095F802F0FBF902F0E3F970BD6F
:1014E000250000208600002078000020C800002091
:1014F000680000206500002010B5002302E0C45CF5
:10150000CC545B1C9342FAD310BD70478307FF2273
:10151000DB0E9A408907090E994000280BDA000774
:10152000000F0838830808489B001818C3699343C4
:101530000B43C3617047830804489B001818036875
:1015400093430B430360704700ED00E000E400E0CC
:10155000F7B53E4A0E4690788021091A3C4DCCB230
:101560002918B44233D9144632460098FFF7C4FF15
:10157000A0788019C0B2A070802802D002980028FC
:1015800021D000262069AA5981190420FFF7B2FE54
:10159000361DF6B2802EF5D302980028206913D0AC
:1015A000A178401823218902421A6261206100203B
:1015B000FFF7FEFCA061274962690A61C8608021CB
:1015C0002348FEF7A8FDFEBD80302061F7E7002725
:1015D00022460098FFF790FF1C48EA590069C1199C
:1015E0000420FFF787FE3F1DFFB2802FF4D3174F73
:1015F00080213869803038611548FEF78CFD0098ED
:10160000361B001932461249FFF776FFBE7002986A
:101610000028D8D0002407E038692A59011904208D
:10162000FFF768FE241DE4B2B8788442F4D3232186
:1016300038698902421A00207A61FFF7B9FCB86163
:1016400004497A690A61C860FEBD0000C00000203C
:1016500038020020E00100207047024600201F21D0
:10166000D307DB0F8B4018435208491EF8D570474B
:10167000F0B5084F7C68BD68FE6884438D4396438F
:10168000002B02D004430D4316437C60BD60FE6016
:10169000F0BD00000081084070B500231F220B4CF4
:1016A0000B4DD2021668AE4202D0121DA242F9D3EF
:1016B0001468AC4201D0002070BD121D02E010CAB7
:1016C0001B1D10C08B42FAD3012070BDFBFB000034
:1016D000A4A3A2A110B500F049FA10BD7047000004
:1016E000042204490428086902D090430861704725
:1016F0001043FBE700E000E00749002806D001287E
:10170000086906D0400840000861704700208861E1
:10171000704701221043F7E700E000E00001401E9F
:10172000FDD27047044902220028086901D0104305
:1017300000E090430861704700E000E00149486123
:101740007047000000E000E0F3B51F271E4D0E4675
:10175000FF0281B02946384600F03AF8044606E018
:1017600000212046FFF7D0FDAC4200D2241D002C02
:1017700002D02068401CF3D132462946384600F09A
:1017800037F8040008D13846FFF7AAFD324629464B
:10179000384600F02DF804460C49FFF7B5FD271D2B
:1017A000002808D10025019C0AE038462168FFF78F
:1017B000ABFD002801D00020FEBD241D2D1D3F1DC6
:1017C000B542F2D30120FEBDFBFB0000A4A3A2A101
:1017D000064A03E00368934202D0001D8842F9D311
:1017E0000168914200D0002070470000A4A3A2A18C
:1017F00010B500230BE00468641C01D0002305E051
:101800001B1D934202D3801A001D02E0001D884276
:10181000F1D3934200D2002010BD0000F8B5354945
:10182000002009788C4649062BD5324EFF272B3EE7
:101830003146757889786A1C491C00242E4BC9B240
:10184000D2B2002D1ED0012D26D0022D39D0032D6D
:1018500017D11A189473957B9573401CC0B2072852
:10186000F7D3B17032290CD3B47022496046BF223D
:1018700074701040087001F09DFE00F0A1FF00F0B0
:10188000DBFEF8BD1F541D5C1D54401CC0B2072870
:10189000F8D312E0B4702BE01C541D5C1D54401CA6
:1018A000C0B20728F8D30020FF271D18EF71EF7989
:1018B000EF71401CC0B20728F6D3B1703229E9D2CB
:1018C000F8BD00251C18E571E579E571401CC0B232
:1018D0000728F6D300201C18A773A57BA573401C0E
:1018E000C0B20728F7D3B1703229E9D30020B07015
:1018F0007270F8BD2B0000203401002010B5144890
:101900000121017013480178491C01700178CA292E
:1019100006D3002101701048802201781143017024
:101920000E48407800280FD00D480078002807D0D6
:101930000C480088322807D90B480078022803D0C9
:101940000A490888401C088000F036FE10BD0000DF
:101950005C0000205D0000202B0000205F000020C4
:10196000180000202C000020780000202E0000200D
:101970001A480169002908D14169002905D1816906
:10198000002902D1C06900281FD015490120086034
:1019900005211448C9058161416842151143416020
:1019A00081684908C907FBD00F490A68D208D200EC
:1019B000921C0A604168C908C900491C4160416B1A
:1019C0004907490F0129FAD17047BFF34F8F0849E2
:1019D0000648C860BFF34F8FFEE7000000030840D1
:1019E0000083084000800840000208400400FA0517
:1019F00000ED00E010B5024800F04EF910BD000007
:101A00000010004010B50120800700F09DF910BDC6
:101A100002690A400261704782680A438260704727
:101A20000069084000D001207047000070B50446EE
:101A30000D46C88889886268084329890E4B1A4078
:101A4000114308436989084360600120800784428C
:101A500001D1182003E00948844207D11C20FFF778
:101A6000F7F82968FEF73AFB606270BD04488442CB
:101A7000FBD11E20F3E70000FCE0FFFF0010004058
:101A800000100440002AC26801D00A4300E08A43E3
:101A9000C2607047006880B2704710238B40416875
:101AA000002A01D0194300E09943416070470000CB
:101AB0000122054912040028486801D0104300E0C3
:101AC00090434860704700000080064010B504460F
:101AD0000020102201230146FFF7D4F800F022F87D
:101AE0000720000300F054F87D20C001844201D992
:101AF000044602E0282C00D82824A003000C00F0A3
:101B000051F8012000F024F800F030F8044800F00B
:101B100035F80120FFF7CCFF012000F00BF810BDD5
:101B2000FF0F000010B50020102201230146FFF72F
:101B30009FFD10BD0349002801D0034800E0034881
:101B4000086170470080064035CA0000CA350000B1
:101B50000122054952030028486801D0104300E0E3
:101B600090434860704700000080064002490148E9
:101B7000086070470100A05F00800640034A91683A
:101B800007231B0319400143916070470080064002
:101B900003498A681205120D02438A6070470000EB
:101BA00000800640034A51680F231B03194001437C
:101BB000516070470080064010B50248FFF786FF6D
:101BC00010BD0000983A000010B50420C043FFF794
:101BD00087FD0A4808490068FEF780FA810040182E
:101BE000FFF7ACFD0120FFF79DFD0020FFF784FD0E
:101BF0000120FFF781FD10BD00350C00E80000203A
:101C00003EB500241121012089024004012322460F
:101C1000FFF738F8FF2501352A461A491A48FEF71A
:101C20006DFF19492A46103108462038FEF766FF35
:101C3000FF201649F5304880062211030120FEF7E7
:101C40002BFEE1204002009068468580C48004811C
:101C500044810F4C69462046FFF7E8FE01221146F9
:101C60002046FFF70FFF012200212046FFF715FF56
:101C7000012211462046FFF710FF06496003086065
:101C80003EBD00000C040020FC020020E400002007
:101C90000010004000E100E038B504468021FFF765
:101CA000BFFE002816D0FF2101312046FFF7B0FE0D
:101CB0001348FEF729FF002805D000220221204604
:101CC000FFF7E0FE06E069460D48FEF733FF684681
:101CD0000078206020212046FFF7A2FE00280DD0CA
:101CE00020212046FFF794FE0648FFF7D3FE064A60
:101CF000034B117810335854491C117038BD000043
:101D0000FC02002000100040E400002010B5044652
:101D1000002910D00A4601460948FEF71DFF01229E
:101D200002210848FFF7AEFE10BD0548FEF725FF6B
:101D30000028F4D0641C21780029F6D1EFE70000D8
:101D4000FC0200200010004038B505468021FFF756
:101D500067FE00281BD02948FEF7D6FE002805D0D4
:101D6000002202212846FFF78DFE10E00824694674
:101D70002248FEF7DFFE6846007828601F48FEF71D
:101D8000C3FE002803D1641E2406240EEFD12021B7
:101D90002846FFF745FE00280ED004242868C1B26B
:101DA00016481038FEF7E9FE641E2406240EF5D10D
:101DB00020212846FFF72CFE40212846FFF730FE61
:101DC00000281AD040212846FFF722FE0BE02868A1
:101DD000C1B20A481038FEF7D0FE08481038FEF7A6
:101DE0009BFE002809D101212846FFF719FE002893
:101DF000EDD102212846FFF70FFE38BD1C0500205B
:101E00002021020C01D010211046020A01D01046F8
:101E10000839020901D01046091F820801D0104676
:101E2000891E420801D0881E7047081A704730B4D6
:101E30007446641E2578641CAB4200D21D46635D67
:101E40005B00E31830BC184702E008C8121F08C145
:101E5000002AFAD170477047002001E001C1121F2B
:101E6000002AFBD1704770B5058800231E462C461A
:101E70000AE05A00825AAA4200D91546A24200D26C
:101E8000144696195B1CDBB28B42F2D3701B001B0D
:101E90000A21FEF723F980B270BD00000020064A37
:101EA00001461070507043009B18401CC0B259800E
:101EB0000C28F8D3704700001A020020F0B5A348A0
:101EC00085B00778A248FA0705468178029148351F
:101ED00041782C460191203400780090002A1CD0D3
:101EE000FEF7E7FA29461C390E683146FEF71EF95F
:101EF000FEF7F4FA68750198FEF7DBFA3146FEF753
:101F000015F9FEF7EBFA28770298FEF7D2FA314678
:101F1000FEF70CF9FEF7E2FA02E000206875287778
:101F2000E0708A482030C678002E05D1687D287080
:101F3000287FE871E078A873B8071DD50098FEF7F0
:101F4000B8FA83492C3149680391FEF7EFF8FEF7A0
:101F5000C5FAA8750198FEF7ACFA0399FEF7E6F802
:101F6000FEF7BCFA68770298FEF7A3FA0399FEF72A
:101F7000DDF8FEF7B3FA02E00020A875687720715B
:101F8000002E05D1A87D6870687F28722079E873DB
:101F900078071DD50098FEF78CFA6D492C318968B9
:101FA0000391FEF7C3F8FEF799FAE8750198FEF77A
:101FB00080FA0399FEF7BAF8FEF790FAA87702982C
:101FC000FEF777FA0399FEF7B1F8FEF787FA02E019
:101FD0000020E875A8776071002E05D1E87DA87013
:101FE000A87F68726079287438071DD50098FEF7BD
:101FF00060FA57492C31C9680391FEF797F8FEF74C
:102000006DFA28760198FEF754FA0399FEF78EF8D8
:10201000FEF764FAE8770298FEF74BFA0399FEF7A9
:1020200085F8FEF75BFA02E000202876E877A071D9
:10203000002E05D1287EE870E87FA872A079687428
:10204000F8061DD50098FEF734FA41492C3109698C
:102050000391FEF76BF8FEF741FA68760198FEF7F8
:1020600028FA0399FEF762F8FEF738FA2070029812
:10207000FEF71FFA0399FEF759F8FEF72FFA02E070
:10208000002068762070E071002E05D1687E2871EE
:102090002078E872E079A874B8061DD50098FEF79C
:1020A00008FA2B492C3149690391FEF73FF8FEF7F6
:1020B00015FAA8760198FEF7FCF90399FEF736F8B1
:1020C000FEF70CFA60700298FEF7F3F90399FEF739
:1020D0002DF8FEF703FA02E00020A8766070207267
:1020E000002E05D1A87E687160782873207AE87484
:1020F00078061DD50098FEF7DCF915492C318F695B
:102100003946FEF713F8FEF7E9F9E8760198FEF78D
:10211000D0F93946FEF70AF8FEF7E0F9A070029808
:10212000FEF7C7F93946FEF701F8FEF7D7F902E0E6
:102130000020E876A0706072002E05D1E87EA871BC
:10214000A0786873607A287505B0F0BD00000020A3
:10215000EC000020044A00218B00491CC9B2D05079
:102160000729F9D3704700001801002070B50E4C04
:102170007F202178C0050325012904D000290FD133
:10218000FFF7E8FF0BE008492039CA7F897F002A62
:1021900001D10029F4D10A4303D000F0AFF8257033
:1021A00070BD0020ECE7000020000020F8B53448A6
:1021B000FF21407F00246931484325462646FF2100
:1021C000FDF78CFF3C2807D20102081AFF243C21AE
:1021D000FDF784FFC5B238E0FF27782809D23C38E4
:1021E0000102081A3C21FDF779FF381AC4B2FF2515
:1021F0002BE0B42807D278380102081AFF253C21C9
:10220000FDF76CFF20E0F02808D2B4380102081A6C
:102210003C21FDF763FF381AC5B20AE0FF212D31DA
:10222000884208D2F0380102081A3C21FDF756FF17
:10223000C4B2FF2609E0FF382D380102081AFF2436
:102240003C21FDF74BFF381AC6B20D486421877F49
:1022500020467843FDF742FF044628467843642130
:10226000FDF73CFF0546304678436421FDF736FF15
:1022700004490C704D708870FFF720FEF8BD000017
:1022800000000020EC00002070B5154908790128F5
:1022900024D10A4638325068401C50605668114BB1
:1022A0000024988B0325864207D3002805D054606C
:1022B0000A78012632430A704D70094A4032566846
:1022C000761C56605668DB8B9E4207D3002805D0EB
:1022D000546008780222104308704D7070BD0000F1
:1022E00074000020E00100200349002008604860DD
:1022F0000831086048607047AC00002070B50020CD
:10230000FFF728FF1D4D1E4CE87F5E2804D3632194
:102310005E2000F037F8A061E87F582804D35D21E3
:10232000582000F02FF86061E87F502804D357212F
:10233000502000F027F82061E87F462804D34F2181
:10234000462000F01FF8E060E87F372804D34521DD
:10235000372000F017F8A060E87F1E2804D336214C
:102360001E2000F00FF86060E87F002804D01D21D7
:10237000012000F007F8206070BD00000000002080
:1023800018010020F8B5144B0446081B1E46C2B2C3
:102390009D7F483630690B2D03D9DD7FA54201D1E1
:1023A0003068F8BD8D42FCD2042A13D31046FEF7E4
:1023B00080F80121C943FDF734FF0746281BFEF7CB
:1023C0006DF83946FDF7EFFEFEF788F80006800D40
:1023D0003058F8BD0020F8BD0000002010B5124CA8
:1023E000FF21A06A2D3188421CD214280ED9FEF795
:1023F00060F8FEF7A5F80D4A0D4BFDF7D1FF00225E
:102400000C4BFDF71BFFFEF77DF80AE00A49072891
:10241000098801D20A2905D30C30A0620A2901D308
:10242000401DA06210BD000074000020A60A4625D1
:102430007502EE3F000036402C000020F0B50C4F36
:102440000FE00E788023491C34461C4000D0012444
:10245000C50B40046C40000C002C00D078405B0899
:10246000F2D11346521E92B2002BEAD1F0BD000009
:10247000211000001CB500226C4622701346019208
:10248000227022788A4208D22278019C825C12193A
:102490006C4601922278521CF2E7019AD2B2019264
:1024A000405C904200D1012318461CBD10B50021AC
:1024B0000148FEF79CF910BD0000014010B5074827
:1024C0000178002905D04168002903D04168491EE0
:1024D000416010BD00F0F4FF10BD0000DC000020E2
:1024E000024800210170416070470000DC000020BC
:1024F000012110B58903002248100123FEF7C2FB19
:1025000010BD000070B500F04BF8154800240480A1
:1025100014480460144801790125144E322902D16F
:102520004179512905D301793C2905D141794329C4
:1025300002D23570447670BD417E0029FBD14576CC
:102540000B480470FFF7D0FE00F06EFA09480178DE
:1025500029430170084902200870347070BD0000E2
:102560007E00002090000020000000207900002064
:102570007800002074000020750000200748417991
:1025800000290AD0416B491C4163416B052904D3E2
:1025900000214171012202714163704774000020E3
:1025A00000B5044A002313715363538100F03CF8D3
:1025B000D36100BD7400002010B50F488169491C2B
:1025C000816181690D4A914210D300238361418961
:1025D0008182438181780124491CC9B281700279CA
:1025E000012A04D0022A01D1032902D210BD0029F8
:1025F000FCD08370C47010BD74000020204E000019
:1026000010B5084C607800280AD00C21A01CFFF7F8
:102610002AFC6083FFF742FC00F00EF801202077CF
:1026200010BD00001A020020024800218181817043
:1026300070470000740000200248012141700170C1
:1026400070470000BC000020F8B5134F13487D6AA6
:10265000396B00226E1A4478002D09D0002906D06B
:10266000304664225043FDF739FDC2B200E02246F5
:1026700094420FD8002C0DD00A2E0BD93D63397827
:1026800002200143397078700448054920384562BA
:1026900001200870F8BD0000740000200002002036
:1026A0000E00002070B50C4DA879002812D00B4800
:1026B000002404700A4804600A4804600A48048040
:1026C0000A480460FFF7B0FFFFF7DEFD084902206B
:1026D0000870AC7170BD000010020020790000206D
:1026E000A80000208C0000207E0000209000002028
:1026F000780000200749084A4889401C4881C86979
:10270000401CC861528B824203D80020C86101205E
:102710000872704774000020E00100201FB50021FE
:102720000EA203910CCA009201936A461081507A5E
:102730001071107A5071684642185278039B491CF8
:10274000D218C9B203920629F6D369468A710122CA
:102750000821684600F0BCFF1FBD00007E0805018F
:102760000000007E70B5144C0125E07A002100289D
:102770001AD0012817D1E08DFF221932904211D3CF
:10278000E08DFF22B93290420CD8E28DA07A0B4E38
:102790004300F252401CC0B2A072E1850A2801D366
:1027A000A1722573E18570BDE1850A210348FDF71B
:1027B000B2FCE57270BD00000000002002010020A4
:1027C0000EB50BA003C8009001910020694602904D
:1027D0000A185278029B401CD218C0B202920328F9
:1027E000F6D30A7106216846FFF790FA0EBD000085
:1027F0007E060602007E0000F8B5072001210022B7
:10280000000489030123FEF73DFA0122202110462E
:10281000FEF742F8774D012220212846FEF7A8FD59
:10282000012210211046FEF737F801221021284618
:10283000FEF79EFD012208211046FEF72DF8012229
:1028400008212846FEF794FD012208210220FEF708
:1028500023F8694F012208213846FEF789FD01223D
:1028600004210220FEF718F8012204213846FEF761
:102870007FFD022101220846FEF70EF80122022107
:102880003846FEF775FD0122140221461046FEF778
:1028900003F8012221462846FEF76AFD0122802125
:1028A0001046FDF7F9FF012280212846FEF760FD62
:1028B000012240211046FDF7EFFF0122402128466A
:1028C000FEF756FD012204210020FDF7E5FF4B4EE7
:1028D000012204213046FEF74BFD01220221002097
:1028E000FDF7DAFF012202213046FEF741FD012209
:1028F000D40221461046FDF7CFFF0122214628468B
:10290000FEF736FD012220210020FDF7C5FF012240
:1029100020213046FEF72CFD012210210020FDF77A
:10292000BBFF012210213046FEF722FD01220821C3
:102930000020FDF7B1FF012208213046FEF718FD07
:102940000122940221461046FDF7A6FF01222146EE
:102950002846FEF70DFD012280210020FDF79CFF97
:10296000012280213046FEF703FD01224021002094
:10297000FDF792FF012240213046FEF7F9FC0122CB
:1029800080210220FDF788FF012280213846FEF7D2
:10299000EFFC012240210220FDF77EFF01224021B1
:1029A0003846FEF7E5FC0122570239461046FDF78E
:1029B00073FF012239462846FEF7DAFC0122042182
:1029C0001046FDF769FF012204212846FEF7D0FCDE
:1029D0000420A862012221460020FDF75DFF0122AC
:1029E00021463046FEF7C4FCB46201F02FF900F036
:1029F00047FBF8BD00200B4000400B4000000B409F
:102A000007490020087007490A7908462030322A11
:102A100003D0432282718A7170475122FAE7000085
:102A2000610000200000002000B5054A002353810A
:102A3000FFF7FAFDD36293621382D381D37100BD95
:102A400074000020F0B56148C179491CC171C17999
:102A5000FF2901D30021C1715D4A1378C479202573
:102A60005C49A34201D84D6200E08D625678C77977
:102A70000824594BBE4201D85C6200E09C62967803
:102A8000C779BE42554E01D84E6200E08E62504A70
:102A9000D678C779524ABE4202D80426566201E06F
:102AA000042696624A4E3679C779BE4201D85562ED
:102AB00000E09562464E7579C779BD42494D01D80F
:102AC0004D6200E08D62B579C779BD4202D880259C
:102AD0005D6201E080259D62B57BC779BD4201D86A
:102AE0004C6200E08C62F57BC779BD4202D80225BA
:102AF0005D6201E002259D62354D2E7CC77940253F
:102B0000BE4201D84D6200E08D62314E767CC779BD
:102B1000BE42354E01D84E6200E08E622C4EB67C2D
:102B2000C779BE4201D8546200E09462284EF47C1A
:102B3000C779BC4201D8556200E09562347DC779FF
:102B4000BC422A4C01D84C6200E08C62204CE679F1
:102B5000C7791024BE4201D84C6200E08C621C4E42
:102B6000367AC779BE4202D804265E6201E00426A6
:102B70009E62174E767AC779BE4202D880264E6290
:102B800001E080268E62124EB17AC779B94202D82E
:102B90000221516201E002219162F17AC779B942C2
:102BA00001D8546200E09462317BC479A14202D81A
:102BB0008021516201E080219162717BC079814264
:102BC00001D85D62F0BD9D62F0BD000020000020D4
:102BD0003401002000200B4000400B4000010000A9
:102BE00000000B400004000000080000000200008C
:102BF00008B53749086C401C0864962866D3002045
:102C00006A4610700864107032495CE01078085C05
:102C100012788A18527D904205D2684600780818CA
:102C20000278521C0CE06A461078085C12788A1808
:102C3000527D904205D96846007808180278521EE5
:102C400002706A4610780818C07912788A18127FC4
:102C5000904205D2684600780818C279521C0DE0EF
:102C60006A4610780818C07912788A18127F904244
:102C700005D9684600780818C279521EC2716846A4
:102C800000780818827B6846007808182030C078E1
:102C900082426846007803D20818827B521C0DE0FD
:102CA0000818827B6846007808182030C078824275
:102CB00005D9684600780818827B521E82736A46DE
:102CC0001078401C1070107807289FD308BD0000B2
:102CD0000000002034010020F8B56B4EB08DFDF7E8
:102CE000EFFB6A4A6A4BFDF75BFBFDF70BFC85B215
:102CF000681EB32800D2B4253079634C7D21C90009
:102D000000272034322803D030793C2847D0B7E060
:102D1000284655225043FDF7E1F95521081A7071F4
:102D2000E121890051208D4202D30821717104E014
:102D3000322D02D87071B772F77201233376F375B2
:102D4000717951291FD3504D2A352978BF2211405E
:102D50002970504A042191624F4A09029162002170
:102D600061722978194329700746A07100214B48E8
:102D7000FDF781FE2878FB21084028704849002093
:102D80000870B77108E07079082805D33E482A30EA
:102D90000178402211430170FFF7B4FB4FE0284651
:102DA00046225043FDF79AF94621081A7071E12135
:102DB000890043208D4202D30721717104E0322D36
:102DC00002D87071B772F77201233376F375717997
:102DD00043291FD32C4D2A352978BF221140297051
:102DE0002C4A042191622C4A0902916200216172ED
:102DF0002978194329700746A07100212748FDF75B
:102E00003AFE2878FB2108402870254900200870E8
:102E1000B77108E07079072805D31B482A3001787C
:102E2000402211430170FFF76DFB7079FDF748FBFD
:102E30000022D243FDF71CFBFDF764FB7071707933
:102E40004000B071F08EB179401A001FF071154F3B
:102E5000154D39462868FDF741F9B179134C4843BF
:102E600081004018606039462868FDF737F9F1792C
:102E7000484381004018A06060682061A0686061DC
:102E800001207072F8BD000000000020333333339E
:102E90003333EB3F00200B4000000B400060074045
:102EA00061000020A0860100E80000202C0700201F
:102EB0004B48FEF733FCFFF79FFCFEF785FEFEF75D
:102EC0007BFEFDF7E1FDFDF795FDFEF799FEFEF7B0
:102ED0005BF9FEF77FFA00211120FEF717FB0121B5
:102EE0000620FEF713FB02210420FEF70FFB0A2148
:102EF0001220FEF70BFBFFF7FBFA00F02FFB39481F
:102F0000394A018D11603949406A394C01270860FE
:102F100067750026A67521462A310878384308705F
:102F2000052208460A3802724D1C287840221043B8
:102F30002870FFF75DFE2878C1092DD0E178C829F7
:102F400001D2491CE1704006400E2870FEF766FC75
:102F5000607B002807D0E06B002803D0E06B401EA8
:102F6000E06300E0E66323480078002806D02248AA
:102F70000168002902D00168491E0160A06B401C55
:102F8000A063A06B642801D32772A6631B4908883D
:102F9000002801D0401E0880FEF722FA207E00287B
:102FA00006D0A08D322805D915480078022801D016
:102FB00000F000FEE078C82803D300F0BBFD00F06D
:102FC0009FFD0B482A300178C90605D50178EF220C
:102FD00011400170FFF7C6FBFEF77CFBA9E700007C
:102FE00010270000E001002094000020980000203D
:102FF00000000020660000207000002086000020F5
:103000007800002010B501210148FDF7F0FB10BD4C
:1030100000000140F8B5174F0020798A002927D118
:10302000FD6ABC6AA54201D9291B00E0611B8EB272
:10303000002D06D03046642148432946FDF74EF85E
:10304000C0B20D490978814205D8002903D0642C0B
:1030500005D2142E03D8002D0AD1002C08D0FC6212
:1030600039780120014339700221797003490870D1
:10307000F8BD000074000020000200200E000020B7
:103080007FB5002401200321009401940294800460
:103090008903012322460394FDF7F4FD0122114622
:1030A0000220FDF7F9FB114D002201212846FEF711
:1030B0005FF9012211462846FEF762F9022100203D
:1030C000FDF7D4FB01206946009408710A200290A4
:1030D000032008736846FEF7E5F801210020FEF79B
:1030E000F1F80349102008607FBD000000400B404C
:1030F00000E100E01FB50EA003C800900020019180
:103100000290694603900A185278029B401CD2181C
:10311000C0B202920428F6D34A7107216846FEF72E
:10312000F5FD054901208873044908701FBD0000A2
:103130007E070505FF007E0000000020C80000207B
:1031400004488179002903D0002181710121417156
:1031500070470000740000207FB5124C6079002891
:103160001FD011A007C800256B4627C3114B6A4624
:10317000998B28460E0A16715171D98B0B0A9371DF
:10318000D17169460A185278039B401CD218C0B20C
:1031900003920728F6D30A720A216846FEF7B6FDA5
:1031A00065717FBD100200207E0A04090000000046
:1031B000007E0000E00100207FB5134CE07900287C
:1031C00021D012A007C800256B4627C3124A6B46C0
:1031D000117D5971D18A28460E0A9E71D971118BC1
:1031E0000A0A1A72597269460A185278039B401CDF
:1031F000D218C0B203920928F6D38A720C2168460D
:10320000FEF784FDE5717FBD100200207E0C04FDF9
:10321000040000000000007EE00100203EB5134DD8
:10322000E87C002821D012A003C800246A4613C2FB
:10323000297D2046002903D0FF216A46517101E013
:1032400069464C7169460A185278029B401CD21894
:10325000C0B202920528F6D38A7108216846FEF7AB
:1032600055FD054901200870EC743EBD00000020AA
:103270007E0804FD0200007E780000203EB5104D5F
:10328000287A00281AD00FA003C800246A4613C267
:103290006A460E49147109785171204669460A1828
:1032A0005278029B401CD218C0B202920528F6D375
:1032B0008A7108216846FEF729FD2C723EBD000088
:1032C000100200207E08040B0000007E7800002021
:1032D0000EB50EA003C80191009000200D49029088
:1032E000898D6B460A0A1A71597169460A18527813
:1032F000029B401CD218C0B202920528F6D38A71F4
:1033000008216846FEF702FD0EBD00007E0701039E
:103310000000007E00000020F0B5254C87B0217829
:10332000002942D02348407802283ED922A02DC847
:103330006E462DC60025244A06951368234A049339
:103340001268234E059237786E4637717171059970
:103350002846090EB1710599090CF1710599090A00
:103360003172059971720499090EB1720499090CB0
:10337000F1720499090A31730499717331460E1878
:103380007678069F401CF619C0B206960D28F6D333
:103390008E7310480749C362426201202039887346
:1033A00010216846FEF7B2FC257007B0F0BD0000A2
:1033B00074000020200000207E10040200000000A5
:1033C000000000000000007E9C000020980000200B
:1033D00075000020E00100203EB5104CE078002888
:1033E0001BD00FA003C800256A4623C20E496B46B6
:1033F0000A781A7149785971284669460A1852782C
:10340000029B401CD218C0B202920528F6D38A71E2
:1034100008216846FEF77AFCE5703EBD10020020E8
:103420007E0804060000007E000200200EB5002188
:103430000CA202910CCA009201936A461071684670
:1034400042185278029B491CD218C9B20292042930
:10345000F6D369464A7100220721684600F038F920
:103460000EBD00007E07050300007E001FB511A001
:1034700007C86B4607C3002001216A4603901171FB
:103480002421517107219171E421D171022111721E
:103490001421517269460A185278039B401CD218B5
:1034A000C0B203920928F6D38A720C216846FEF74F
:1034B0002DFC1FBD7E0C1002000000000000007EED
:1034C00070B5124D2878002810D0686800280DD1FA
:1034D0002C461C3C2079401CC0B22071032806D227
:1034E000E1780B48FEF712FC0520686070BD0026ED
:1034F0002E70607A002801D0002000E00120FFF744
:1035000095FF267026720120608170BDDC000020CE
:10351000B802002070B5044601250D486D04056011
:103520000C4E00213046FDF7A6FA0B49A0000958C1
:103530003046FDF7DFFA00213046FDF7DDFA04489A
:103540008038056001213046FDF795FA70BD000016
:1035500080E100E0006007402C070020F8B50C4F28
:103560000C4E39463068FCF7B9FD0A210A4C484335
:10357000206000256560A56039463068FCF7AEFD27
:1035800014214843E06025616561E068A061F8BDF1
:10359000A0860100E80000202C07002010B5044898
:1035A000017F002903D000210177FEF7FFFD10BD48
:1035B00000000020F0B514480021C17113482021FB
:1035C00041620823436210214162114A536202267C
:1035D0005662042757628115416240244462802567
:1035E00045620C494F621F0247624E6220264E62BE
:1035F0004B6210234B62031543624C624D6255626D
:10360000411541625462F0BD2000002000200B40B3
:1036100000400B4000000B401FB500200EA103909E
:103620000EC96C460EC40F496B4649880A0A1A71C6
:103630005971FF21997169460A185278039B401C01
:10364000D218C0B203920628F6D3CA71002209210B
:10365000684600F03DF81FBD7E0905080000000027
:103660007E000000E00100200749487800280AD0C9
:10367000002048700549086005494862054908600E
:10368000054901208873704710020020980000202F
:10369000E0010020A4000020000000200949487A31
:1036A00000280ED00020487207490A220860074906
:1036B00048620846203042700270E1200001888391
:1036C000C88370471002002098000020E00100200D
:1036D00070B50C460546002A0DD00A460849FDF78C
:1036E0000BFF084805210246C4701C3251600121BD
:1036F00011700021017121462846FEF707FB70BDBD
:10370000B8020020C000002070B5104D28790028B4
:103710001BD00F4E0F4A717C30460024008E0129C9
:1037200004D0022905D0032908D00BE090830A4871
:1037300001E0D08309480460446003E09083D083B3
:10374000FEF7D2FD0120B0732C7170BD1002002075
:1037500000000020E0010020AC000020B4000020A8
:1037600010B50B4B9878002810D00A4C0A48E27B21
:103770002146097C012A02D0022A02D002E001700F
:1037800000E041700120A0730020987010BD00007F
:10379000100200200000002000020020354B10B570
:1037A0001A4618784832507558781077104699782C
:1037B0002030C1703049C978002905D1547D14707A
:1037C000147FD471C4789473DC7894751C79547721
:1037D0005C790471002905D1947D5470547F147272
:1037E0000479D4739C79D475DC7994771C7A44710C
:1037F000002905D1D47D9470947F54724479147457
:103800005C7A14769C7AD477DC7A8471002905D1AD
:10381000147ED470D47F9472847954741C7B547653
:103820005C7B04709C7BC471002905D1547E1471AB
:103830000478D472C4799474DC7B94761C7C4470D4
:103840005C7C0472002905D1947E54714478147311
:10385000047AD4749C7CD476DC7C84701B7D4372A7
:10386000002905D1D17E917181785173407A10750C
:1038700010BD0000EC0000202000002010B5074C17
:1038800000212046FDF738F90121054A490411605D
:1038900000212046FDF7EFF810BD00000060074052
:1038A00080E100E010B50848817B00290BD00021A1
:1038B000817330210548FDF747FF012803D03021EF
:1038C0000248FDF741FF10BD00000020E00100208C
:1038D00010B51548017F002913D000230377134A40
:1038E0001149947E10462030498B002C0AD08D243B
:1038F000E400A14205D39376D37680789085FFF7D4
:10390000EBF910BD0A4CA1420CD8D17E491CC9B2BA
:10391000D1760329F5D3D37601219176918D8170EB
:103920004808EBE7D37610BD1A0200200000002003
:103930005703000010B507490878002804D04878DC
:10394000002802D0401E487010BD00200870FFF70C
:1039500059FB10BDBC000020F0B55F489BB001785A
:10396000024601255D4F568900240B00FEF75FFAE1
:10397000040318207316009479880646C181387AAA
:103980002327B0713B22BF02920239460120FDF786
:103990000BFD35705248B0813761B4701BB0F0BD7B
:1039A000054644703046FEF7B9FE02212970F5E75E
:1039B000074640780028F1D0642102A8FCF7ABFB51
:1039C000684684800480474B7C70D8784006410C60
:1039D0001879014368468180184681794279080246
:1039E000104341BA684601808088B04203D16846DE
:1039F0000088002805D0684600880028CED07D7257
:103A0000CCE77C72FEF76CFDD87802A9C40918785F
:103A1000E4010A38C6B23246D81DFDF76DFD3246C4
:103A200002A9B889FEF70AFDB8812246314602A8EC
:103A3000FDF78EFD002C09D02B480570FFF732FFF3
:103A4000032038702948FDF769FEA7E77889401CF4
:103A500078813D70A2E706468089F189884224D1A9
:103A6000B07900280CD0FD20FFF7E0FC1E4805705F
:103A7000FFF718FF1D48FDF751FE7581347028E0EF
:103A8000FF20FFF7D3FC194C2046FDF747FE194AEB
:103A9000174991632046FDF741FEBFF34F8F174949
:103AA0001548C860BFF34F8FFEE70020FFF7BEFC4C
:103AB0000320F071757134703C727C80064875810A
:103AC00034721C3004700648B081232080023061BB
:103AD000B470347262E70000C0000020E0010020F2
:103AE0000F1D00005E0100200E000020A0860100D6
:103AF00015109119C01F00200400FA0500ED00E028
:103B000010B50A4C207A00280FD0002020720848F7
:103B1000216AC08A4018E1210901FCF7DFFA626AD4
:103B2000216280186062FEF78FFD10BD74000020D6
:103B3000E001002038B5184CE078002827D000209C
:103B40000090E07023792146144A898A012B11D014
:103B5000134D012300291BD05183552111751149A3
:103B60000988D18210490988118310492B700B7084
:103B700020820EE0E181D08A0A2359434843518BC9
:103B8000FCF7ACFAA062FEF729FCFFF743FA38BD58
:103B900028700748037038BD74000020E001002041
:103BA0001400002032000020340000200E0000200D
:103BB00013000020F0B523480021027B0C46002AA8
:103BC0003DD0054620352A79002A38D102731E4E91
:103BD000338832884800375A9F4200D2335A375AC6
:103BE000974200D9325A305A491C0419C9B20A29DD
:103BF000F0D3A01AC01A0003010C1248C186027942
:103C00003221002A09D1C28E622A01D3017104E057
:103C1000C28E502A01D33C220271C163012141733B
:103C20000022C2722971A979002908D1817900295D
:103C300005D10179322903D04321A9718171F0BDE9
:103C40005121FAE700000020020100207FB5002486
:103C5000012000040321009401940294451089037B
:103C6000012322460394FDF70DF801222946002086
:103C7000FCF712FE104E002229463046FDF778FB75
:103C8000012229463046FDF77BFB00210F20FCF77F
:103C9000EDFD0F20009069460C710320029408731B
:103CA0006846FDF7FFFA01210F20FDF70BFB0349E2
:103CB000402008607FBD000000000B4000E100E0F4
:103CC000E064000000000020EC0000004846000016
:103CD000CC650000EC0000205C120000584600009B
:103CE00000000000320000000000000000000000A2
:103CF00000000000000000000000000000000000C4
:103D000000000000000000000000000000000000B3
:103D100000000000000000000000000000000000A3
:103D200000000000000000009A99193E9A99993EFF
:103D30006666E63E6666263F0000803F00000000A3
:103D40000000000001000000000000000000000072
:103D50000000000000000000000000000000000063
:103D60000000000000000000000000000000000053
:103D70000000000000000000000000000000000043
:103D80000000000000000000000000000000000033
:103D90000000000000000000000000000000000023
:103DA0000000000000000000000001000F1D0000E6
:103DB000008C000000000000000000000000000077
:0C3DC0000000000000000000005A620239
:00000001FF
